:020000040000FA
:100000008316860183128C010C081220860034208E
:100010008C0A0A300C02031803280C0812208600F0
:10002000342008288207C034F934A434B034993419
:1000300092348234F83480349034000000000000A0
:1000400000000000000008000000A430302800007C
:10005000403030281F30302800000E303028053066
:100060008D008D0B31280800C830432864304328A8
:1000700032304328143043280A30432805304328BF
:100080000230432801308E00F9308D0000008D0BC6
:1000900046288E0B44280800C8305728643057285B
:1000A00032305728143057280A30572805308F002F
:1000B00064308E00F9308D0000008D0B5C288E0BB3
:0800C0005A288F0B5828080094
:0400C80000340034CC
:02400E00713F00
:00000001FF
