:020000040000FA
:1000000083168701880183123F3087002320063042
:10001000870023205B30870023204F308700232078
:100020006630870023206D30870023207D308700D5
:1000300023200730870023207F30870023206F3064
:100040008700232004283F308800422006308800A3
:1000500042205B30880042204F30880042206630CA
:10006000880042206D30880042207D308800422088
:100070000730880042207F30880042206F3088009F
:1000800042200800FF30A000A00B47280800FF30E6
:08009000A100A10B492844283E
:0400980000340034FC
:02400E00713F00
:00000001FF
