:020000040000FA
:100000008316F830860083120130860018200330F2
:10001000860023200430860029200428FF308C002D
:100020008C0B13280800FF308D008D0B152810282D
:100030000E200E200E200E200E200E200E200E2050
:100040000E200E2008000E200E200E200E200E2066
:1000500008000E200E200E200E200E200E200E2056
:100060000E200E200E200E200E200E200E200E2020
:0C0070000E200E200E200E200E20080096
:04007C000034003418
:02400E00F13F80
:00000001FF
