:020000040000FA
:10000000831686018701880183120230A000152023
:10001000260886000530A100152026088700200844
:1000200021071520260888000528A400A50009300E
:10003000A300A403A30B19280130A407A40B2328B1
:100040006F30A60008002508A400A5000830A30012
:10005000A403A30B28280130A407A40B32287F3067
:10006000A60008002508A400A5000730A300A403EB
:10007000A30B37280130A407A40B41280730A600A2
:1000800008002508A400A5000630A300A403A30BC4
:1000900046280130A407A40B50287D30A600080094
:1000A0002508A400A5000530A300A403A30B552830
:1000B0000130A407A40B5F286D30A60008002508B6
:1000C000A400A5000430A300A403A30B64280130FE
:1000D000A407A40B6E286630A60008002508A4001B
:1000E000A5000330A300A403A30B73280130A407C9
:1000F000A40B7D284F30A60008002508A400A50009
:100100000230A300A403A30B82280130A407A40B90
:100110008C285B30A60008002508A400A50001304B
:10012000A300A403A30B91280130A407A40B9B28D0
:0C0130000630A60008003F30A6000800C2
:04013C000034003457
:02400E00713F00
:00000001FF
