:020000040000FA
:10000000831686018312C03086003920F9308600BD
:100010003920A43086003920B0308600392099304C
:1000200086003920923086003920823086003920BF
:10003000F8308600392080308600392090308600E4
:10004000392003280000000000000000000000002C
:1000500008000000A43035280000403035281F304B
:10006000352800000E30352805308C008C0B3628E2
:100070000800C830482864304828323048281430F6
:1000800048280A30482805304828023048280130DE
:100090008D00F9308C0000008C0B4B288D0B49280B
:1000A0000800C8305C2864305C2832305C2814308A
:1000B0005C280A305C2805308E0064308D00F930F1
:1000C0008C0000008C0B61288D0B5F288E0B5D2847
:0200D000080026
:0400D20000340034C2
:02400E00F73F7A
:00000001FF
