:020000040000FA
:10000000831605148601831200308600051C04281F
:100010001B201B2000308600051C0A284C204C2089
:100020004C204C2000308600051C122865206520DD
:100030006520652004280130860081200330860079
:1000400081200730860081200F30860081201F30FC
:10005000860081203F30860081207F30860081200D
:10006000FF30860081207F30860081203F3086006F
:1000700081201F30860081200F30860081200730CC
:100080008600812003308600812001308600812097
:100090000030860081200800813086008120C33036
:1000A00086008120E73086008120FF308600812095
:1000B000E73086008120C3308600812081308600B1
:1000C00081200030860081200800183086008120C1
:1000D000993086008120BD3086008120DB3086008B
:1000E0008120FF3086008120E73086008120423069
:1000F0008600812024308600812000308600812007
:100100000800FF309000900B86280800FF30910017
:06011000910B88288328F2
:04011600003400347D
:02400E00F13F80
:00000001FF
