:020000040000FA
:10000000831687018801051406309F008312003093
:1000100087008800051C0A28773087000030880098
:100020006720051C1128773087007F308800672003
:10003000051C1828393087007F3088006720051C90
:100040001F28393087003F3088006720051C26288C
:10005000773087003F3088006720112800000000BB
:10006000000000000000000008000000A43041284B
:100070000000403041281F30412800000E30412848
:100080000530A000A00B42280800C8305428643076
:10009000542832305428143054280A30542805305B
:1000A0005428023054280130A100F930A00000008B
:1000B000A00B5728A10B55280800C83068286430C9
:1000C000682832306828143068280A3068280530DB
:1000D000A2006430A100F930A0000000A00B6D2840
:0A00E000A10B6B28A20B6928080091
:0400EA0000340034AA
:02400E00713F00
:00000001FF
