:020000040000FA
:100000008316860187018801051485140515851559
:10001000051606309F0083120301A000A1004E20A8
:100020002608860087008800851C202811210930B9
:10003000200203182028200AA0004E20260886004F
:10004000051C2C281121A00AA00B27282C282003EE
:10005000A0004E2026088600851D38281121093071
:10006000210203183828210AA1004E202608870003
:10007000051D44281121A10AA10B3F284428210372
:10008000A1004E2026088700051E142811212008F3
:10009000A00021074E20260888001428A400A500EF
:1000A0000930A300A403A30B52280130A407A40B1A
:1000B0005C286F30A60008002508A400A5000830C1
:1000C000A300A403A30B61280130A407A40B6B2891
:1000D0007F30A60008002508A400A5000730A30073
:1000E000A403A30B70280130A407A40B7A280730BF
:1000F000A60008002508A400A5000630A300A4035C
:10010000A30B7F280130A407A40B89287D30A6000B
:1001100008002508A400A5000530A300A403A30B34
:100120008E280130A407A40B98286D30A600080083
:100130002508A400A5000430A300A403A30B9D2858
:100140000130A407A40BA7286630A60008002508E4
:10015000A400A5000330A300A403A30BAC28013026
:10016000A407A40BB6284F30A60008002508A40059
:10017000A5000230A300A403A30BBB280130A407F1
:10018000A40BC5285B30A60008002508A400A50024
:100190000130A300A403A30BCA280130A407A40BB9
:1001A000D4280630A60008003F30A6000800D72853
:1001B0000000000000000000000000000800000037
:1001C000A430EB2800004030EB281F30EB28000063
:1001D0000E30EB280530B000B00BEC280800C8301A
:1001E000FE286430FE283230FE281430FE280A3003
:1001F000FE280530FE280230FE280130B100F9301B
:10020000B0000000B00B0129B10BFF280800C83076
:1002100012296430122932301229143012290A307E
:1002200012290530B2006430B100F930B00000008E
:0E023000B00B1729B10B1529B20B13290800CA
:02023E0000348A
:02024000003488
:02400E00713F00
:00000001FF
