:020000040000FA
:1000000083160514071006309F008312071005148D
:10001000051808282F20051C082801308706082805
:1000200000000000000000000000000008000000C8
:10003000A43023280000403023281F30232800004C
:100040000E3023280530A000A00B24280800C8305B
:1000500036286430362832303628143036280A30B4
:10006000362805303628023036280130A100F93014
:10007000A0000000A00B3928A10B37280800C830C9
:100080004A2864304A2832304A2814304A280A3034
:100090004A280530A2006430A100F930A000000019
:0E00A000A00B4F28A10B4D28A20B4B280800E7
:0200AE0000341C
:0200B00000341A
:02400E00713F00
:00000001FF
